:100000000C945D000C9485000C9485000C94850084
:100010000C9485000C9485000C9485000C9485004C
:100020000C9485000C9485000C9485000C9485003C
:100030000C9485000C9485000C9485000C9485002C
:100040000C94E5010C9485000C9483040C94C60474
:100050000C9485000C9485000C9485000C9485000C
:100060000C9485000C94850000000007000201003C
:100070000003040600000000000000000102040864
:100080001020408001020408102001020408102002
:10009000040404040404040402020202020203032E
:1000A0000303030300000000250028002B000000CC
:1000B0000000240027002A00820511241FBECFEF74
:1000C000D8E0DEBFCDBF11E0A0E0B1E0E4E0FCE0AD
:1000D00002C005900D92AA31B107D9F721E0AAE13B
:1000E000B1E001C01D92AD3CB207E1F710E0CAEBF0
:1000F000D0E004C02297FE010E94FC05C83BD10756
:10010000C9F70E94E4030C9400060C94000040E838
:1001100055E260E070E083E291E00E94010561E059
:10012000809106010E94760161E0809104010E94A5
:10013000760161E0809102010E94760161E0809188
:1001400000010C947601CF92DF92EF92FF92CF9351
:10015000DF939C01215031092A3F310568F0295F66
:1001600031092B3F310558F0845F91408B3F910559
:1001700048F4CAEFD0E008C0C8EED3E005C0C4EF31
:10018000D1E002C0C4E6D0E061E0809106010E94A7
:10019000AF0160E0809104010E94AF0160E08091B6
:1001A00002010E94AF0160E0809100010E94AF0156
:1001B0006E01EE24D7FCE094FE2CC701B6010E942C
:1001C000520260E0809106010E94AF0161E08091DF
:1001D00004010E94AF0160E0809102010E94AF0122
:1001E00060E0809100010E94AF01C701B6010E944A
:1001F000520260E0809106010E94AF0160E08091B0
:1002000004010E94AF0161E0809102010E94AF01F0
:1002100060E0809100010E94AF01C701B6010E9419
:10022000520260E0809106010E94AF0160E080917F
:1002300004010E94AF0160E0809102010E94AF01C1
:1002400061E0809100010E94AF01C701B601DF911A
:10025000CF91FF90EF90DF90CF900C945202CF930C
:10026000DF9369E170E080E090E00E9452028EE04E
:100270000E94B302EC014AE050E0BC0183E291E04D
:100280000E94CC0369E170E080E090E00E9452029D
:10029000CE01DF91CF910C94A300833081F028F43C
:1002A000813099F08230A1F008958630A9F087302E
:1002B000B9F08430D1F4809180008F7D03C08091AB
:1002C00080008F7780938000089584B58F7702C077
:1002D00084B58F7D84BD08958091B0008F7703C071
:1002E0008091B0008F7D8093B0000895CF93DF930D
:1002F00090E0FC01E458FF4F2491FC01E057FF4FD0
:100300008491882349F190E0880F991FFC01E25500
:10031000FF4FA591B4918C559F4FFC01C591D4918D
:100320009FB7611108C0F8948C91209582238C931B
:10033000888182230AC0623051F4F8948C91322F64
:10034000309583238C938881822B888304C0F89412
:100350008C91822B8C939FBFDF91CF9108950F9347
:100360001F93CF93DF931F92CDB7DEB7282F30E0D6
:10037000F901E859FF4F8491F901E458FF4F1491B6
:10038000F901E057FF4F04910023C9F0882321F0C1
:1003900069830E944D016981E02FF0E0EE0FFF1F9D
:1003A000EC55FF4FA591B4919FB7F8948C916111D2
:1003B00003C01095812301C0812B8C939FBF0F90A8
:1003C000DF91CF911F910F9108951F920F920FB659
:1003D0000F9211242F933F938F939F93AF93BF93CB
:1003E00080911B0190911C01A0911D01B0911E01F3
:1003F00030911A0123E0230F2D3720F40196A11D1F
:10040000B11D05C026E8230F0296A11DB11D209342
:100410001A0180931B0190931C01A0931D01B093BE
:100420001E0180911F0190912001A0912101B091A6
:1004300022010196A11DB11D80931F0190932001FF
:10044000A0932101B0932201BF91AF919F918F9111
:100450003F912F910F900FBE0F901F9018953FB7AF
:10046000F89480911F0190912001A0912101B091F9
:10047000220126B5A89B05C02F3F19F00196A11DAA
:10048000B11D3FBF6627782F892F9A2F620F711DEC
:10049000811D911D42E0660F771F881F991F4A95A5
:1004A000D1F70895CF92DF92EF92FF92CF93DF932F
:1004B0006B017C010E942F02EB01C114D104E10405
:1004C000F10479F00E942F026C1B7D0B683E734093
:1004D000A0F381E0C81AD108E108F108C851DC4F47
:1004E000ECCFDF91CF91FF90EF90DF90CF90089508
:1004F000789484B5826084BD84B5816084BD85B5FF
:10050000826085BD85B5816085BDEEE6F0E08081C5
:1005100081608083E1E8F0E01082808182608083E6
:10052000808181608083E0E8F0E080818160808369
:10053000E1EBF0E0808184608083E0EBF0E080819B
:1005400081608083EAE7F0E080818460808380813D
:1005500082608083808181608083808180688083E5
:100560001092C10008958E3008F08E50877020914F
:10057000080190E4299F90011124822B80937C0034
:1005800080917A00806480937A0080917A0086FD61
:10059000FCCF809178002091790090E0922B089513
:1005A000CF92DF92EF92FF920F931F93CF93DF933F
:1005B0006C017A01EB01E60EF71E00E010E0CE15AB
:1005C000DF0561F06991D601ED91FC910190F08118
:1005D000E02DC6010995080F191FF1CFC801DF9161
:1005E000CF911F910F91FF90EF90DF90CF900895E2
:1005F0006115710581F0DB010D900020E9F7AD0177
:1006000041505109461B570BDC01ED91FC910280D2
:10061000F381E02D099480E090E00895DC01ED91F4
:10062000FC910190F081E02D09940F931F93CF93DB
:10063000DF93EC016DE00E940E038C016AE0CE01B5
:100640000E940E03800F911FDF91CF911F910F9198
:1006500008958F929F92AF92BF92CF92DF92EF92C6
:10066000FF920F931F93CF93DF93CDB7DEB7A19780
:100670000FB6F894DEBF0FBECDBF7C01C42EE52FB0
:10068000CB01D22E19A221E02D1510F02AE0D22E96
:100690008E010F5D1F4F8D2C912CA12CB12C6C2D38
:1006A0007E2FA50194010E94D8058C2DD29E801921
:1006B0001124015011098A3014F4805D01C0895C55
:1006C000F8018083211531054105510521F0C22E25
:1006D000E32FCA01E4CFB801C7010E94F802A19636
:1006E0000FB6F894DEBF0FBECDBFDF91CF911F9143
:1006F0000F91FF90EF90DF90CF90BF90AF909F90C1
:100700008F900895CF92DF92EF92FF920F931F93F5
:10071000CF93DF93EC016A017B012115310579F458
:10072000E881F9810190F081E02D642FDF91CF9174
:100730001F910F91FF90EF90DF90CF9009942A3096
:100740003105E9F477FF1AC06DE20E940E038C01B7
:1007500044275527BA014C195D096E097F092AE023
:10076000CE010E942903800F911FDF91CF911F912D
:100770000F91FF90EF90DF90CF9008952AE0B7019E
:10078000A601CE01DF91CF911F910F91FF90EF90C5
:10079000DF90CF900C9429030F931F93CF93DF9397
:1007A000EC019A01AB01662757FD6095762F0E94F8
:1007B00082038C01CE010E941503800F911FDF91EF
:1007C000CF911F910F9108950E9478020E94870097
:1007D000CDEBD4E00E942F012097E1F30E94BD04ED
:1007E000F9CFFC0124853585F901E05CFF4F80815C
:1007F0009181329620813181821B930B8F739927CF
:100800000895FC0184859585FC01E05CFF4F4081E3
:1008100051813296208131814217530741F0019076
:10082000F081E02DE80FF91F808190E008958FEFAF
:100830009FEF0895FC0184859585FC01E05CFF4FE6
:10084000408151813296208131814217530779F0DE
:10085000A081B181A80FB91F8C91208131812F5FB8
:100860003F4F2F7333273183208390E008958FEF1C
:100870009FEF0895FC0181A1882329F0A489B589FF
:100880008C9186FFFBCF11A20895CF93DF93FC01DB
:1008900026853785D901A05CBF4F8D919C9111971A
:1008A00001968F739927E901CE5BDF4F488159810B
:1008B00084179507D9F30D90BC91A02DA20FB31FFB
:1008C0006C93A685B785A05CBF4F11969C938E93C1
:1008D000A689B7892C9181E090E0078C02C0880F2F
:1008E000991F0A94E2F7282B2C9381E081A30488B6
:1008F000F589E02D80818064808381E090E0DF9144
:10090000CF91089508951F920F920FB60F92112460
:100910002F933F934F938F939F93EF93FF938091E8
:10092000C00082FD1CC04091C6008091C901909119
:10093000CA0101968F7399272091CB013091CC0188
:100940008217930771F0E091C901F091CA01E7574E
:10095000FE4F40839093CA018093C90102C08091E9
:10096000C600FF91EF919F918F914F913F912F91F1
:100970000F900FBE0F901F90189583E291E00E9498
:10098000F103892B11F00C94820408951F920F92A9
:100990000FB60F9211242F933F938F939F93EF9352
:1009A000FF9320918501309186018091870190917C
:1009B00088012817390731F48091C1008F7D809319
:1009C000C10014C0E0918701F0918801EB5BFE4FFC
:1009D0002081809187019091880101968F739927DA
:1009E00090938801809387012093C600FF91EF9137
:1009F0009F918F913F912F910F900FBE0F901F905D
:100A00001895CF92DF92EF92FF92CF93DF93EC0194
:100A10006A017B01411581EE580761057105F9F006
:100A2000EC89FD8981E090E008A002C0880F991F41
:100A30000A94E2F7808360E079E08DE390E0A7011B
:100A400096010E94D8052150310941095109569556
:100A5000479537952795211580E1380798F0EC895F
:100A6000FD89108260E874E88EE190E0A7019601AC
:100A70000E94D805215031094109510956954795E1
:100A800037952795E889F9893083EA89FB8920839E
:100A900019A2EE89FF89408181E090E09C010C8CD5
:100AA00002C0220F331F0A94E2F7422B4083EE89E3
:100AB000FF8940819C010D8C02C0220F331F0A94D4
:100AC000E2F7422B4083EE89FF8940819C010E8C26
:100AD00002C0220F331F0A94E2F7422B4083EE89B3
:100AE000FF8920810F8C02C0880F991F0A94E2F7BA
:100AF000809582238083DF91CF91FF90EF90DF90EC
:100B0000CF900895109226011092250188EE93E06F
:100B1000A0E0B0E08093270190932801A0932901E1
:100B2000B0932A018DE091E09093240180932301FA
:100B300089E891E09093300180932F0185E491E062
:100B4000909332018093310185EC90E090933401D1
:100B50008093330184EC90E09093360180933501CB
:100B600080EC90E0909338018093370181EC90E025
:100B700090933A018093390182EC90E090933C018C
:100B800080933B0186EC90E090933E0180933D0181
:100B900084E080933F0183E08093400187E080936D
:100BA000410185E08093420181E0809343010895F3
:100BB000A1E21A2EAA1BBB1BFD010DC0AA1FBB1F61
:100BC000EE1FFF1FA217B307E407F50720F0A21BD3
:100BD000B30BE40BF50B661F771F881F991F1A9440
:100BE00069F760957095809590959B01AC01BD016A
:100BF000CF010895EE0FFF1F0590F491E02D0994A9
:040C0000F894FFCF96
:100C0400080007000400020001000000004504D0B1
:0A0C140002F1031A0401043A04007F
:00000001FF
